{"abi":[{"type":"constructor","inputs":[{"name":"_decimals","type":"uint8","internalType":"uint8"},{"name":"_initialAnswer","type":"int256","internalType":"int256"}],"stateMutability":"nonpayable"},{"type":"function","name":"decimals","inputs":[],"outputs":[{"name":"","type":"uint8","internalType":"uint8"}],"stateMutability":"view"},{"type":"function","name":"description","inputs":[],"outputs":[{"name":"","type":"string","internalType":"string"}],"stateMutability":"pure"},{"type":"function","name":"getAnswer","inputs":[{"name":"","type":"uint256","internalType":"uint256"}],"outputs":[{"name":"","type":"int256","internalType":"int256"}],"stateMutability":"view"},{"type":"function","name":"getRoundData","inputs":[{"name":"_roundId","type":"uint80","internalType":"uint80"}],"outputs":[{"name":"roundId","type":"uint80","internalType":"uint80"},{"name":"answer","type":"int256","internalType":"int256"},{"name":"startedAt","type":"uint256","internalType":"uint256"},{"name":"updatedAt","type":"uint256","internalType":"uint256"},{"name":"answeredInRound","type":"uint80","internalType":"uint80"}],"stateMutability":"view"},{"type":"function","name":"getTimestamp","inputs":[{"name":"","type":"uint256","internalType":"uint256"}],"outputs":[{"name":"","type":"uint256","internalType":"uint256"}],"stateMutability":"view"},{"type":"function","name":"latestAnswer","inputs":[],"outputs":[{"name":"","type":"int256","internalType":"int256"}],"stateMutability":"view"},{"type":"function","name":"latestRound","inputs":[],"outputs":[{"name":"","type":"uint256","internalType":"uint256"}],"stateMutability":"view"},{"type":"function","name":"latestRoundData","inputs":[],"outputs":[{"name":"roundId","type":"uint80","internalType":"uint80"},{"name":"answer","type":"int256","internalType":"int256"},{"name":"startedAt","type":"uint256","internalType":"uint256"},{"name":"updatedAt","type":"uint256","internalType":"uint256"},{"name":"answeredInRound","type":"uint80","internalType":"uint80"}],"stateMutability":"view"},{"type":"function","name":"latestTimestamp","inputs":[],"outputs":[{"name":"","type":"uint256","internalType":"uint256"}],"stateMutability":"view"},{"type":"function","name":"updateAnswer","inputs":[{"name":"_answer","type":"int256","internalType":"int256"}],"outputs":[],"stateMutability":"nonpayable"},{"type":"function","name":"updateRoundData","inputs":[{"name":"_roundId","type":"uint80","internalType":"uint80"},{"name":"_answer","type":"int256","internalType":"int256"},{"name":"_timestamp","type":"uint256","internalType":"uint256"},{"name":"_startedAt","type":"uint256","internalType":"uint256"}],"outputs":[],"stateMutability":"nonpayable"},{"type":"function","name":"version","inputs":[],"outputs":[{"name":"","type":"uint256","internalType":"uint256"}],"stateMutability":"view"}],"bytecode":{"object":"0x60806040523480156200001157600080fd5b5060405162000aeb38038062000aeb833981810160405281019062000037919062000161565b816000806101000a81548160ff021916908360ff16021790555062000062816200006a60201b60201c565b50506200022e565b8060018190555042600281905550600360008154809291906200008d90620001e1565b919050555080600460006003548152602001908152602001600020819055504260056000600354815260200190815260200160002081905550426006600060035481526020019081526020016000208190555050565b600080fd5b600060ff82169050919050565b6200010081620000e8565b81146200010c57600080fd5b50565b6000815190506200012081620000f5565b92915050565b6000819050919050565b6200013b8162000126565b81146200014757600080fd5b50565b6000815190506200015b8162000130565b92915050565b600080604083850312156200017b576200017a620000e3565b5b60006200018b858286016200010f565b92505060206200019e858286016200014a565b9150509250929050565b7f4e487b7100000000000000000000000000000000000000000000000000000000600052601160045260246000fd5b6000819050919050565b6000620001ee82620001d7565b91507fffffffffffffffffffffffffffffffffffffffffffffffffffffffffffffffff8203620002235762000222620001a8565b5b600182019050919050565b6108ad806200023e6000396000f3fe608060405234801561001057600080fd5b50600436106100b45760003560e01c80638205bf6a116100715780638205bf6a1461016b5780639a6fc8f514610189578063a87a20ce146101bd578063b5ab58dc146101d9578063b633620c14610209578063feaf968c14610239576100b4565b8063313ce567146100b95780634aa2011f146100d757806350d25bcd146100f357806354fd4d5014610111578063668a0f021461012f5780637284e4161461014d575b600080fd5b6100c161025b565b6040516100ce91906104b9565b60405180910390f35b6100f160048036038101906100ec9190610587565b61026c565b005b6100fb6102e1565b60405161010891906105fd565b60405180910390f35b6101196102e7565b6040516101269190610627565b60405180910390f35b6101376102ec565b6040516101449190610627565b60405180910390f35b6101556102f2565b60405161016291906106d2565b60405180910390f35b610173610312565b6040516101809190610627565b60405180910390f35b6101a3600480360381019061019e91906106f4565b610318565b6040516101b4959493929190610730565b60405180910390f35b6101d760048036038101906101d29190610783565b610395565b005b6101f360048036038101906101ee91906107b0565b61040c565b60405161020091906105fd565b60405180910390f35b610223600480360381019061021e91906107b0565b610424565b6040516102309190610627565b60405180910390f35b61024161043c565b604051610252959493929190610730565b60405180910390f35b60008054906101000a900460ff1681565b8369ffffffffffffffffffff16600381905550826001819055508160028190555082600460006003548152602001908152602001600020819055508160056000600354815260200190815260200160002081905550806006600060035481526020019081526020016000208190555050505050565b60015481565b600481565b60035481565b606060405180606001604052806023815260200161085560239139905090565b60025481565b600080600080600085600460008869ffffffffffffffffffff16815260200190815260200160002054600660008969ffffffffffffffffffff16815260200190815260200160002054600560008a69ffffffffffffffffffff16815260200190815260200160002054899450945094509450945091939590929450565b8060018190555042600281905550600360008154809291906103b69061080c565b919050555080600460006003548152602001908152602001600020819055504260056000600354815260200190815260200160002081905550426006600060035481526020019081526020016000208190555050565b60046020528060005260406000206000915090505481565b60056020528060005260406000206000915090505481565b6000806000806000600354600460006003548152602001908152602001600020546006600060035481526020019081526020016000205460056000600354815260200190815260200160002054600354945094509450945094509091929394565b600060ff82169050919050565b6104b38161049d565b82525050565b60006020820190506104ce60008301846104aa565b92915050565b600080fd5b600069ffffffffffffffffffff82169050919050565b6104f8816104d9565b811461050357600080fd5b50565b600081359050610515816104ef565b92915050565b6000819050919050565b61052e8161051b565b811461053957600080fd5b50565b60008135905061054b81610525565b92915050565b6000819050919050565b61056481610551565b811461056f57600080fd5b50565b6000813590506105818161055b565b92915050565b600080600080608085870312156105a1576105a06104d4565b5b60006105af87828801610506565b94505060206105c08782880161053c565b93505060406105d187828801610572565b92505060606105e287828801610572565b91505092959194509250565b6105f78161051b565b82525050565b600060208201905061061260008301846105ee565b92915050565b61062181610551565b82525050565b600060208201905061063c6000830184610618565b92915050565b600081519050919050565b600082825260208201905092915050565b60005b8381101561067c578082015181840152602081019050610661565b60008484015250505050565b6000601f19601f8301169050919050565b60006106a482610642565b6106ae818561064d565b93506106be81856020860161065e565b6106c781610688565b840191505092915050565b600060208201905081810360008301526106ec8184610699565b905092915050565b60006020828403121561070a576107096104d4565b5b600061071884828501610506565b91505092915050565b61072a816104d9565b82525050565b600060a0820190506107456000830188610721565b61075260208301876105ee565b61075f6040830186610618565b61076c6060830185610618565b6107796080830184610721565b9695505050505050565b600060208284031215610799576107986104d4565b5b60006107a78482850161053c565b91505092915050565b6000602082840312156107c6576107c56104d4565b5b60006107d484828501610572565b91505092915050565b7f4e487b7100000000000000000000000000000000000000000000000000000000600052601160045260246000fd5b600061081782610551565b91507fffffffffffffffffffffffffffffffffffffffffffffffffffffffffffffffff8203610849576108486107dd565b5b60018201905091905056fe76302e362f746573742f6d6f636b2f4d6f636b563341676772656761746f722e736f6ca2646970667358221220e3331e54df7a1640c8a046d9184af8da540cac7969f09cd8e5ffab210b5500b864736f6c63430008130033","linkReferences":{}},"methodIdentifiers":{"decimals()":"313ce567","description()":"7284e416","getAnswer(uint256)":"b5ab58dc","getRoundData(uint80)":"9a6fc8f5","getTimestamp(uint256)":"b633620c","latestAnswer()":"50d25bcd","latestRound()":"668a0f02","latestRoundData()":"feaf968c","latestTimestamp()":"8205bf6a","updateAnswer(int256)":"a87a20ce","updateRoundData(uint80,int256,uint256,uint256)":"4aa2011f","version()":"54fd4d50"},"id":29}