{"abi":[{"type":"constructor","inputs":[{"name":"priceFeed","type":"address","internalType":"address"}],"stateMutability":"nonpayable"},{"type":"fallback","stateMutability":"payable"},{"type":"receive","stateMutability":"payable"},{"type":"function","name":"MINIMUM_USD","inputs":[],"outputs":[{"name":"","type":"uint256","internalType":"uint256"}],"stateMutability":"view"},{"type":"function","name":"cheaperWithdraw","inputs":[],"outputs":[],"stateMutability":"nonpayable"},{"type":"function","name":"fund","inputs":[],"outputs":[],"stateMutability":"payable"},{"type":"function","name":"getAddressToAmountFunded","inputs":[{"name":"fundingAddress","type":"address","internalType":"address"}],"outputs":[{"name":"","type":"uint256","internalType":"uint256"}],"stateMutability":"view"},{"type":"function","name":"getFunder","inputs":[{"name":"index","type":"uint256","internalType":"uint256"}],"outputs":[{"name":"","type":"address","internalType":"address"}],"stateMutability":"view"},{"type":"function","name":"getOwner","inputs":[],"outputs":[{"name":"","type":"address","internalType":"address"}],"stateMutability":"view"},{"type":"function","name":"getVersion","inputs":[],"outputs":[{"name":"","type":"uint256","internalType":"uint256"}],"stateMutability":"view"},{"type":"function","name":"i_owner","inputs":[],"outputs":[{"name":"","type":"address","internalType":"address"}],"stateMutability":"view"},{"type":"function","name":"withdraw","inputs":[],"outputs":[],"stateMutability":"nonpayable"},{"type":"error","name":"NotOwner","inputs":[]}],"bytecode":{"object":"0x60806040523480156200001157600080fd5b506040516200122c3803806200122c83398181016040528101906200003791906200012a565b33600260006101000a81548173ffffffffffffffffffffffffffffffffffffffff021916908373ffffffffffffffffffffffffffffffffffffffff16021790555080600360006101000a81548173ffffffffffffffffffffffffffffffffffffffff021916908373ffffffffffffffffffffffffffffffffffffffff160217905550506200015c565b600080fd5b600073ffffffffffffffffffffffffffffffffffffffff82169050919050565b6000620000f282620000c5565b9050919050565b6200010481620000e5565b81146200011057600080fd5b50565b6000815190506200012481620000f9565b92915050565b600060208284031215620001435762000142620000c0565b5b6000620001538482850162000113565b91505092915050565b6110c0806200016c6000396000f3fe60806040526004361061008a5760003560e01c8063893d20e811610059578063893d20e81461014d578063b60d428814610178578063be2693f014610182578063d7b4750c14610199578063dba6335f146101d657610099565b80630343fb25146100a35780630d8e6e2c146100e05780633ccfd60b1461010b5780636b69a5921461012257610099565b3661009957610097610201565b005b6100a1610201565b005b3480156100af57600080fd5b506100ca60048036038101906100c59190610b1f565b61033a565b6040516100d79190610b65565b60405180910390f35b3480156100ec57600080fd5b506100f5610382565b6040516101029190610b65565b60405180910390f35b34801561011757600080fd5b5061012061041a565b005b34801561012e57600080fd5b5061013761065c565b6040516101449190610b65565b60405180910390f35b34801561015957600080fd5b50610162610668565b60405161016f9190610b8f565b60405180910390f35b610180610201565b005b34801561018e57600080fd5b50610197610692565b005b3480156101a557600080fd5b506101c060048036038101906101bb9190610bd6565b6108da565b6040516101cd9190610b8f565b60405180910390f35b3480156101e257600080fd5b506101eb610922565b6040516101f89190610b8f565b60405180910390f35b674563918244f4000061023f600360009054906101000a900473ffffffffffffffffffffffffffffffffffffffff163461094890919063ffffffff16565b1015610280576040517f08c379a000000000000000000000000000000000000000000000000000000000815260040161027790610c60565b60405180910390fd5b346000803373ffffffffffffffffffffffffffffffffffffffff1673ffffffffffffffffffffffffffffffffffffffff16815260200190815260200160002060008282546102ce9190610caf565b925050819055506001339080600181540180825580915050600190039060005260206000200160009091909190916101000a81548173ffffffffffffffffffffffffffffffffffffffff021916908373ffffffffffffffffffffffffffffffffffffffff160217905550565b60008060008373ffffffffffffffffffffffffffffffffffffffff1673ffffffffffffffffffffffffffffffffffffffff168152602001908152602001600020549050919050565b6000600360009054906101000a900473ffffffffffffffffffffffffffffffffffffffff1673ffffffffffffffffffffffffffffffffffffffff166354fd4d506040518163ffffffff1660e01b8152600401602060405180830381865afa1580156103f1573d6000803e3d6000fd5b505050506040513d601f19601f820116820180604052508101906104159190610cf8565b905090565b600260009054906101000a900473ffffffffffffffffffffffffffffffffffffffff1673ffffffffffffffffffffffffffffffffffffffff163373ffffffffffffffffffffffffffffffffffffffff16146104a1576040517f30cd747100000000000000000000000000000000000000000000000000000000815260040160405180910390fd5b60005b60018054905081101561054c576000600182815481106104c7576104c6610d25565b5b9060005260206000200160009054906101000a900473ffffffffffffffffffffffffffffffffffffffff16905060008060008373ffffffffffffffffffffffffffffffffffffffff1673ffffffffffffffffffffffffffffffffffffffff1681526020019081526020016000208190555050808061054490610d54565b9150506104a4565b50600067ffffffffffffffff81111561056857610567610d9c565b5b6040519080825280602002602001820160405280156105965781602001602082028036833780820191505090505b50600190805190602001906105ac929190610a15565b5060003373ffffffffffffffffffffffffffffffffffffffff16476040516105d390610dfc565b60006040518083038185875af1925050503d8060008114610610576040519150601f19603f3d011682016040523d82523d6000602084013e610615565b606091505b5050905080610659576040517f08c379a000000000000000000000000000000000000000000000000000000000815260040161065090610e5d565b60405180910390fd5b50565b674563918244f4000081565b6000600260009054906101000a900473ffffffffffffffffffffffffffffffffffffffff16905090565b600260009054906101000a900473ffffffffffffffffffffffffffffffffffffffff1673ffffffffffffffffffffffffffffffffffffffff163373ffffffffffffffffffffffffffffffffffffffff1614610719576040517f30cd747100000000000000000000000000000000000000000000000000000000815260040160405180910390fd5b6000600180549050905060005b818110156107c95760006001828154811061074457610743610d25565b5b9060005260206000200160009054906101000a900473ffffffffffffffffffffffffffffffffffffffff16905060008060008373ffffffffffffffffffffffffffffffffffffffff1673ffffffffffffffffffffffffffffffffffffffff168152602001908152602001600020819055505080806107c190610d54565b915050610726565b50600067ffffffffffffffff8111156107e5576107e4610d9c565b5b6040519080825280602002602001820160405280156108135781602001602082028036833780820191505090505b5060019080519060200190610829929190610a15565b5060003373ffffffffffffffffffffffffffffffffffffffff164760405161085090610dfc565b60006040518083038185875af1925050503d806000811461088d576040519150601f19603f3d011682016040523d82523d6000602084013e610892565b606091505b50509050806108d6576040517f08c379a00000000000000000000000000000000000000000000000000000000081526004016108cd90610e5d565b60405180910390fd5b5050565b6000600182815481106108f0576108ef610d25565b5b9060005260206000200160009054906101000a900473ffffffffffffffffffffffffffffffffffffffff169050919050565b600260009054906101000a900473ffffffffffffffffffffffffffffffffffffffff1681565b60008061095483610984565b90506000670de0b6b3a7640000858361096d9190610e7d565b6109779190610eee565b9050809250505092915050565b6000808273ffffffffffffffffffffffffffffffffffffffff1663feaf968c6040518163ffffffff1660e01b815260040160a060405180830381865afa1580156109d2573d6000803e3d6000fd5b505050506040513d601f19601f820116820180604052508101906109f69190610f97565b5050509150506402540be40081610a0d9190611012565b915050919050565b828054828255906000526020600020908101928215610a8e579160200282015b82811115610a8d5782518260006101000a81548173ffffffffffffffffffffffffffffffffffffffff021916908373ffffffffffffffffffffffffffffffffffffffff16021790555091602001919060010190610a35565b5b509050610a9b9190610a9f565b5090565b5b80821115610ab8576000816000905550600101610aa0565b5090565b600080fd5b600073ffffffffffffffffffffffffffffffffffffffff82169050919050565b6000610aec82610ac1565b9050919050565b610afc81610ae1565b8114610b0757600080fd5b50565b600081359050610b1981610af3565b92915050565b600060208284031215610b3557610b34610abc565b5b6000610b4384828501610b0a565b91505092915050565b6000819050919050565b610b5f81610b4c565b82525050565b6000602082019050610b7a6000830184610b56565b92915050565b610b8981610ae1565b82525050565b6000602082019050610ba46000830184610b80565b92915050565b610bb381610b4c565b8114610bbe57600080fd5b50565b600081359050610bd081610baa565b92915050565b600060208284031215610bec57610beb610abc565b5b6000610bfa84828501610bc1565b91505092915050565b600082825260208201905092915050565b7f596f75206e65656420746f207370656e64206d6f726520455448210000000000600082015250565b6000610c4a601b83610c03565b9150610c5582610c14565b602082019050919050565b60006020820190508181036000830152610c7981610c3d565b9050919050565b7f4e487b7100000000000000000000000000000000000000000000000000000000600052601160045260246000fd5b6000610cba82610b4c565b9150610cc583610b4c565b9250828201905080821115610cdd57610cdc610c80565b5b92915050565b600081519050610cf281610baa565b92915050565b600060208284031215610d0e57610d0d610abc565b5b6000610d1c84828501610ce3565b91505092915050565b7f4e487b7100000000000000000000000000000000000000000000000000000000600052603260045260246000fd5b6000610d5f82610b4c565b91507fffffffffffffffffffffffffffffffffffffffffffffffffffffffffffffffff8203610d9157610d90610c80565b5b600182019050919050565b7f4e487b7100000000000000000000000000000000000000000000000000000000600052604160045260246000fd5b600081905092915050565b50565b6000610de6600083610dcb565b9150610df182610dd6565b600082019050919050565b6000610e0782610dd9565b9150819050919050565b7f43616c6c206661696c6564000000000000000000000000000000000000000000600082015250565b6000610e47600b83610c03565b9150610e5282610e11565b602082019050919050565b60006020820190508181036000830152610e7681610e3a565b9050919050565b6000610e8882610b4c565b9150610e9383610b4c565b9250828202610ea181610b4c565b91508282048414831517610eb857610eb7610c80565b5b5092915050565b7f4e487b7100000000000000000000000000000000000000000000000000000000600052601260045260246000fd5b6000610ef982610b4c565b9150610f0483610b4c565b925082610f1457610f13610ebf565b5b828204905092915050565b600069ffffffffffffffffffff82169050919050565b610f3e81610f1f565b8114610f4957600080fd5b50565b600081519050610f5b81610f35565b92915050565b6000819050919050565b610f7481610f61565b8114610f7f57600080fd5b50565b600081519050610f9181610f6b565b92915050565b600080600080600060a08688031215610fb357610fb2610abc565b5b6000610fc188828901610f4c565b9550506020610fd288828901610f82565b9450506040610fe388828901610ce3565b9350506060610ff488828901610ce3565b925050608061100588828901610f4c565b9150509295509295909350565b600061101d82610f61565b915061102883610f61565b925082820261103681610f61565b91507f8000000000000000000000000000000000000000000000000000000000000000841460008412161561106e5761106d610c80565b5b828205841483151761108357611082610c80565b5b509291505056fea2646970667358221220eea96521fce39bfb42fdc085bb7a005320dd98274ec4e08edd4fcc1709e962fd64736f6c63430008130033","linkReferences":{}},"methodIdentifiers":{"MINIMUM_USD()":"6b69a592","cheaperWithdraw()":"be2693f0","fund()":"b60d4288","getAddressToAmountFunded(address)":"0343fb25","getFunder(uint256)":"d7b4750c","getOwner()":"893d20e8","getVersion()":"0d8e6e2c","i_owner()":"dba6335f","withdraw()":"3ccfd60b"},"id":26}