{"abi":[{"type":"constructor","inputs":[{"name":"priceFeed","type":"address","internalType":"address"}],"stateMutability":"nonpayable"},{"type":"fallback","stateMutability":"payable"},{"type":"receive","stateMutability":"payable"},{"type":"function","name":"MINIMUM_USD","inputs":[],"outputs":[{"name":"","type":"uint256","internalType":"uint256"}],"stateMutability":"view"},{"type":"function","name":"cheaperWithdraw","inputs":[],"outputs":[],"stateMutability":"nonpayable"},{"type":"function","name":"fund","inputs":[],"outputs":[],"stateMutability":"payable"},{"type":"function","name":"getAddressToAmountFunded","inputs":[{"name":"fundingAddress","type":"address","internalType":"address"}],"outputs":[{"name":"","type":"uint256","internalType":"uint256"}],"stateMutability":"view"},{"type":"function","name":"getFunder","inputs":[{"name":"index","type":"uint256","internalType":"uint256"}],"outputs":[{"name":"","type":"address","internalType":"address"}],"stateMutability":"view"},{"type":"function","name":"getOwner","inputs":[],"outputs":[{"name":"","type":"address","internalType":"address"}],"stateMutability":"view"},{"type":"function","name":"getVersion","inputs":[],"outputs":[{"name":"","type":"uint256","internalType":"uint256"}],"stateMutability":"view"},{"type":"function","name":"i_owner","inputs":[],"outputs":[{"name":"","type":"address","internalType":"address"}],"stateMutability":"view"},{"type":"function","name":"withdraw","inputs":[],"outputs":[],"stateMutability":"nonpayable"},{"type":"error","name":"NotOwner","inputs":[]}],"bytecode":{"object":"0x608060405234801561000f575f5ffd5b5060405161114238038061114283398181016040528101906100319190610115565b3360025f6101000a81548173ffffffffffffffffffffffffffffffffffffffff021916908373ffffffffffffffffffffffffffffffffffffffff1602179055508060035f6101000a81548173ffffffffffffffffffffffffffffffffffffffff021916908373ffffffffffffffffffffffffffffffffffffffff16021790555050610140565b5f5ffd5b5f73ffffffffffffffffffffffffffffffffffffffff82169050919050565b5f6100e4826100bb565b9050919050565b6100f4816100da565b81146100fe575f5ffd5b50565b5f8151905061010f816100eb565b92915050565b5f6020828403121561012a576101296100b7565b5b5f61013784828501610101565b91505092915050565b610ff58061014d5f395ff3fe608060405260043610610089575f3560e01c8063893d20e811610058578063893d20e814610148578063b60d428814610172578063be2693f01461017c578063d7b4750c14610192578063dba6335f146101ce57610098565b80630343fb25146100a25780630d8e6e2c146100de5780633ccfd60b146101085780636b69a5921461011e57610098565b36610098576100966101f8565b005b6100a06101f8565b005b3480156100ad575f5ffd5b506100c860048036038101906100c39190610acf565b61032a565b6040516100d59190610b12565b60405180910390f35b3480156100e9575f5ffd5b506100f261036f565b6040516100ff9190610b12565b60405180910390f35b348015610113575f5ffd5b5061011c610403565b005b348015610129575f5ffd5b50610132610634565b60405161013f9190610b12565b60405180910390f35b348015610153575f5ffd5b5061015c610640565b6040516101699190610b3a565b60405180910390f35b61017a6101f8565b005b348015610187575f5ffd5b50610190610668565b005b34801561019d575f5ffd5b506101b860048036038101906101b39190610b7d565b61089e565b6040516101c59190610b3a565b60405180910390f35b3480156101d9575f5ffd5b506101e26108e2565b6040516101ef9190610b3a565b60405180910390f35b674563918244f4000061023560035f9054906101000a900473ffffffffffffffffffffffffffffffffffffffff163461090790919063ffffffff16565b1015610276576040517f08c379a000000000000000000000000000000000000000000000000000000000815260040161026d90610c02565b60405180910390fd5b345f5f3373ffffffffffffffffffffffffffffffffffffffff1673ffffffffffffffffffffffffffffffffffffffff1681526020019081526020015f205f8282546102c19190610c4d565b92505081905550600133908060018154018082558091505060019003905f5260205f20015f9091909190916101000a81548173ffffffffffffffffffffffffffffffffffffffff021916908373ffffffffffffffffffffffffffffffffffffffff160217905550565b5f5f5f8373ffffffffffffffffffffffffffffffffffffffff1673ffffffffffffffffffffffffffffffffffffffff1681526020019081526020015f20549050919050565b5f60035f9054906101000a900473ffffffffffffffffffffffffffffffffffffffff1673ffffffffffffffffffffffffffffffffffffffff166354fd4d506040518163ffffffff1660e01b8152600401602060405180830381865afa1580156103da573d5f5f3e3d5ffd5b505050506040513d601f19601f820116820180604052508101906103fe9190610c94565b905090565b60025f9054906101000a900473ffffffffffffffffffffffffffffffffffffffff1673ffffffffffffffffffffffffffffffffffffffff163373ffffffffffffffffffffffffffffffffffffffff1614610489576040517f30cd747100000000000000000000000000000000000000000000000000000000815260040160405180910390fd5b5f5f90505b600180549050811015610529575f600182815481106104b0576104af610cbf565b5b905f5260205f20015f9054906101000a900473ffffffffffffffffffffffffffffffffffffffff1690505f5f5f8373ffffffffffffffffffffffffffffffffffffffff1673ffffffffffffffffffffffffffffffffffffffff1681526020019081526020015f208190555050808060010191505061048e565b505f67ffffffffffffffff81111561054457610543610cec565b5b6040519080825280602002602001820160405280156105725781602001602082028036833780820191505090505b50600190805190602001906105889291906109cf565b505f3373ffffffffffffffffffffffffffffffffffffffff16476040516105ae90610d46565b5f6040518083038185875af1925050503d805f81146105e8576040519150601f19603f3d011682016040523d82523d5f602084013e6105ed565b606091505b5050905080610631576040517f08c379a000000000000000000000000000000000000000000000000000000000815260040161062890610da4565b60405180910390fd5b50565b674563918244f4000081565b5f60025f9054906101000a900473ffffffffffffffffffffffffffffffffffffffff16905090565b60025f9054906101000a900473ffffffffffffffffffffffffffffffffffffffff1673ffffffffffffffffffffffffffffffffffffffff163373ffffffffffffffffffffffffffffffffffffffff16146106ee576040517f30cd747100000000000000000000000000000000000000000000000000000000815260040160405180910390fd5b5f60018054905090505f5f90505b81811015610792575f6001828154811061071957610718610cbf565b5b905f5260205f20015f9054906101000a900473ffffffffffffffffffffffffffffffffffffffff1690505f5f5f8373ffffffffffffffffffffffffffffffffffffffff1673ffffffffffffffffffffffffffffffffffffffff1681526020019081526020015f20819055505080806001019150506106fc565b505f67ffffffffffffffff8111156107ad576107ac610cec565b5b6040519080825280602002602001820160405280156107db5781602001602082028036833780820191505090505b50600190805190602001906107f19291906109cf565b505f3373ffffffffffffffffffffffffffffffffffffffff164760405161081790610d46565b5f6040518083038185875af1925050503d805f8114610851576040519150601f19603f3d011682016040523d82523d5f602084013e610856565b606091505b505090508061089a576040517f08c379a000000000000000000000000000000000000000000000000000000000815260040161089190610da4565b60405180910390fd5b5050565b5f600182815481106108b3576108b2610cbf565b5b905f5260205f20015f9054906101000a900473ffffffffffffffffffffffffffffffffffffffff169050919050565b60025f9054906101000a900473ffffffffffffffffffffffffffffffffffffffff1681565b5f5f61091283610941565b90505f670de0b6b3a7640000858361092a9190610dc2565b6109349190610e30565b9050809250505092915050565b5f5f8273ffffffffffffffffffffffffffffffffffffffff1663feaf968c6040518163ffffffff1660e01b815260040160a060405180830381865afa15801561098c573d5f5f3e3d5ffd5b505050506040513d601f19601f820116820180604052508101906109b09190610ed2565b5050509150506402540be400816109c79190610f49565b915050919050565b828054828255905f5260205f20908101928215610a45579160200282015b82811115610a44578251825f6101000a81548173ffffffffffffffffffffffffffffffffffffffff021916908373ffffffffffffffffffffffffffffffffffffffff160217905550916020019190600101906109ed565b5b509050610a529190610a56565b5090565b5b80821115610a6d575f815f905550600101610a57565b5090565b5f5ffd5b5f73ffffffffffffffffffffffffffffffffffffffff82169050919050565b5f610a9e82610a75565b9050919050565b610aae81610a94565b8114610ab8575f5ffd5b50565b5f81359050610ac981610aa5565b92915050565b5f60208284031215610ae457610ae3610a71565b5b5f610af184828501610abb565b91505092915050565b5f819050919050565b610b0c81610afa565b82525050565b5f602082019050610b255f830184610b03565b92915050565b610b3481610a94565b82525050565b5f602082019050610b4d5f830184610b2b565b92915050565b610b5c81610afa565b8114610b66575f5ffd5b50565b5f81359050610b7781610b53565b92915050565b5f60208284031215610b9257610b91610a71565b5b5f610b9f84828501610b69565b91505092915050565b5f82825260208201905092915050565b7f596f75206e65656420746f207370656e64206d6f7265204554482100000000005f82015250565b5f610bec601b83610ba8565b9150610bf782610bb8565b602082019050919050565b5f6020820190508181035f830152610c1981610be0565b9050919050565b7f4e487b71000000000000000000000000000000000000000000000000000000005f52601160045260245ffd5b5f610c5782610afa565b9150610c6283610afa565b9250828201905080821115610c7a57610c79610c20565b5b92915050565b5f81519050610c8e81610b53565b92915050565b5f60208284031215610ca957610ca8610a71565b5b5f610cb684828501610c80565b91505092915050565b7f4e487b71000000000000000000000000000000000000000000000000000000005f52603260045260245ffd5b7f4e487b71000000000000000000000000000000000000000000000000000000005f52604160045260245ffd5b5f81905092915050565b50565b5f610d315f83610d19565b9150610d3c82610d23565b5f82019050919050565b5f610d5082610d26565b9150819050919050565b7f43616c6c206661696c65640000000000000000000000000000000000000000005f82015250565b5f610d8e600b83610ba8565b9150610d9982610d5a565b602082019050919050565b5f6020820190508181035f830152610dbb81610d82565b9050919050565b5f610dcc82610afa565b9150610dd783610afa565b9250828202610de581610afa565b91508282048414831517610dfc57610dfb610c20565b5b5092915050565b7f4e487b71000000000000000000000000000000000000000000000000000000005f52601260045260245ffd5b5f610e3a82610afa565b9150610e4583610afa565b925082610e5557610e54610e03565b5b828204905092915050565b5f69ffffffffffffffffffff82169050919050565b610e7e81610e60565b8114610e88575f5ffd5b50565b5f81519050610e9981610e75565b92915050565b5f819050919050565b610eb181610e9f565b8114610ebb575f5ffd5b50565b5f81519050610ecc81610ea8565b92915050565b5f5f5f5f5f60a08688031215610eeb57610eea610a71565b5b5f610ef888828901610e8b565b9550506020610f0988828901610ebe565b9450506040610f1a88828901610c80565b9350506060610f2b88828901610c80565b9250506080610f3c88828901610e8b565b9150509295509295909350565b5f610f5382610e9f565b9150610f5e83610e9f565b9250828202610f6c81610e9f565b91507f800000000000000000000000000000000000000000000000000000000000000084145f84121615610fa357610fa2610c20565b5b8282058414831517610fb857610fb7610c20565b5b509291505056fea2646970667358221220292a9c2d9a730b936f1cdc1524db0b0b636ed308bf886c3d721ac6f74703623264736f6c634300081d0033","linkReferences":{}},"methodIdentifiers":{"MINIMUM_USD()":"6b69a592","cheaperWithdraw()":"be2693f0","fund()":"b60d4288","getAddressToAmountFunded(address)":"0343fb25","getFunder(uint256)":"d7b4750c","getOwner()":"893d20e8","getVersion()":"0d8e6e2c","i_owner()":"dba6335f","withdraw()":"3ccfd60b"},"id":23}